{
  "_format": "hh-sol-artifact-1",
  "contractName": "MerkleProofCost",
  "sourceName": "contracts/MerkleProofCost.sol",
  "abi": [
    {
      "inputs": [
        {
          "internalType": "bytes32",
          "name": "root",
          "type": "bytes32"
        }
      ],
      "name": "setHashRoot",
      "outputs": [],
      "stateMutability": "nonpayable",
      "type": "function"
    },
    {
      "inputs": [
        {
          "internalType": "address",
          "name": "voter",
          "type": "address"
        },
        {
          "internalType": "bytes32[]",
          "name": "proof",
          "type": "bytes32[]"
        }
      ],
      "name": "verifyVoter",
      "outputs": [
        {
          "internalType": "bool",
          "name": "",
          "type": "bool"
        }
      ],
      "stateMutability": "view",
      "type": "function"
    },
    {
      "inputs": [],
      "name": "votersRootHash",
      "outputs": [
        {
          "internalType": "bytes32",
          "name": "",
          "type": "bytes32"
        }
      ],
      "stateMutability": "view",
      "type": "function"
    }
  ],
  "bytecode": "0x608060405234801561001057600080fd5b506105aa806100206000396000f3fe608060405234801561001057600080fd5b50600436106100415760003560e01c80630a5af0ab1461004657806346c440b6146100645780635c12ee6e14610080575b600080fd5b61004e6100b0565b60405161005b919061036e565b60405180910390f35b61007e600480360381019061007991906102da565b6100b6565b005b61009a60048036038101906100959190610286565b6100c0565b6040516100a79190610353565b60405180910390f35b60005481565b8060008190555050565b60006100f582600054856040516020016100da9190610338565b604051602081830303815290604052805190602001206100fd565b905092915050565b60008261010a8584610114565b1490509392505050565b60008082905060005b84518110156101a4576000858281518110610161577f4e487b7100000000000000000000000000000000000000000000000000000000600052603260045260246000fd5b602002602001015190508083116101835761017c83826101af565b9250610190565b61018d81846101af565b92505b50808061019c9061045d565b91505061011d565b508091505092915050565b600082600052816020526040600020905092915050565b60006101d96101d4846103ae565b610389565b905080838252602082019050828560208602820111156101f857600080fd5b60005b85811015610228578161020e8882610271565b8452602084019350602083019250506001810190506101fb565b5050509392505050565b60008135905061024181610546565b92915050565b600082601f83011261025857600080fd5b81356102688482602086016101c6565b91505092915050565b6000813590506102808161055d565b92915050565b6000806040838503121561029957600080fd5b60006102a785828601610232565b925050602083013567ffffffffffffffff8111156102c457600080fd5b6102d085828601610247565b9150509250929050565b6000602082840312156102ec57600080fd5b60006102fa84828501610271565b91505092915050565b61031461030f826103da565b6104a6565b82525050565b610323816103ec565b82525050565b610332816103f8565b82525050565b60006103448284610303565b60148201915081905092915050565b6000602082019050610368600083018461031a565b92915050565b60006020820190506103836000830184610329565b92915050565b60006103936103a4565b905061039f828261042c565b919050565b6000604051905090565b600067ffffffffffffffff8211156103c9576103c86104f9565b5b602082029050602081019050919050565b60006103e582610402565b9050919050565b60008115159050919050565b6000819050919050565b600073ffffffffffffffffffffffffffffffffffffffff82169050919050565b6000819050919050565b61043582610528565b810181811067ffffffffffffffff82111715610454576104536104f9565b5b80604052505050565b600061046882610422565b91507fffffffffffffffffffffffffffffffffffffffffffffffffffffffffffffffff82141561049b5761049a6104ca565b5b600182019050919050565b60006104b1826104b8565b9050919050565b60006104c382610539565b9050919050565b7f4e487b7100000000000000000000000000000000000000000000000000000000600052601160045260246000fd5b7f4e487b7100000000000000000000000000000000000000000000000000000000600052604160045260246000fd5b6000601f19601f8301169050919050565b60008160601b9050919050565b61054f816103da565b811461055a57600080fd5b50565b610566816103f8565b811461057157600080fd5b5056fea2646970667358221220ad19ddeb3dc0fe90f7aae710bd6684cf897c7be9be53c0ce9312b1746490521764736f6c63430008040033",
  "linkReferences": {},
  "deployedLinkReferences": {}
}