{
  "_format": "hh-sol-artifact-1",
  "contractName": "MultipleStoringTest",
  "sourceName": "contracts/MultipleStoringTest.sol",
  "abi": [
    {
      "inputs": [
        {
          "internalType": "address[]",
          "name": "newList",
          "type": "address[]"
        }
      ],
      "name": "f1_storeAddr",
      "outputs": [],
      "stateMutability": "nonpayable",
      "type": "function"
    },
    {
      "inputs": [
        {
          "internalType": "address[]",
          "name": "voters",
          "type": "address[]"
        }
      ],
      "name": "f2_saveWithLoop",
      "outputs": [],
      "stateMutability": "nonpayable",
      "type": "function"
    },
    {
      "inputs": [
        {
          "internalType": "address[]",
          "name": "_voters",
          "type": "address[]"
        }
      ],
      "name": "f3_loopWithInlineAssembly",
      "outputs": [],
      "stateMutability": "nonpayable",
      "type": "function"
    },
    {
      "inputs": [
        {
          "internalType": "uint256",
          "name": "",
          "type": "uint256"
        }
      ],
      "name": "first",
      "outputs": [
        {
          "internalType": "address",
          "name": "",
          "type": "address"
        }
      ],
      "stateMutability": "view",
      "type": "function"
    },
    {
      "inputs": [
        {
          "internalType": "address",
          "name": "",
          "type": "address"
        }
      ],
      "name": "second",
      "outputs": [
        {
          "internalType": "bool",
          "name": "",
          "type": "bool"
        }
      ],
      "stateMutability": "view",
      "type": "function"
    },
    {
      "inputs": [
        {
          "internalType": "address",
          "name": "",
          "type": "address"
        }
      ],
      "name": "third",
      "outputs": [
        {
          "internalType": "bool",
          "name": "",
          "type": "bool"
        }
      ],
      "stateMutability": "view",
      "type": "function"
    }
  ],
  "bytecode": "0x608060405234801561001057600080fd5b50610754806100206000396000f3fe608060405234801561001057600080fd5b50600436106100625760003560e01c806308f387e6146100675780630b3f62f51461008357806369b6345c146100b35780636d2d9706146100e35780637ce629f51461011357806396de66131461012f575b600080fd5b610081600480360381019061007c91906104b0565b61014b565b005b61009d600480360381019061009891906104f1565b6101b7565b6040516100aa9190610538565b60405180910390f35b6100cd60048036038101906100c89190610487565b6101f6565b6040516100da9190610553565b60405180910390f35b6100fd60048036038101906100f89190610487565b610216565b60405161010a9190610553565b60405180910390f35b61012d600480360381019061012891906104b0565b610236565b005b610149600480360381019061014491906104b0565b610250565b005b60005b81518110156101b3576101a0828281518110610193577f4e487b7100000000000000000000000000000000000000000000000000000000600052603260045260246000fd5b602002602001015161030a565b80806101ab90610638565b91505061014e565b5050565b600081815481106101c757600080fd5b906000526020600020016000915054906101000a900473ffffffffffffffffffffffffffffffffffffffff1681565b60026020528060005260406000206000915054906101000a900460ff1681565b60016020528060005260406000206000915054906101000a900460ff1681565b806000908051906020019061024c929190610320565b5050565b60005b815181101561030657600180600084848151811061029a577f4e487b7100000000000000000000000000000000000000000000000000000000600052603260045260246000fd5b602002602001015173ffffffffffffffffffffffffffffffffffffffff1673ffffffffffffffffffffffffffffffffffffffff16815260200190815260200160002060006101000a81548160ff02191690831515021790555080806102fe90610638565b915050610253565b5050565b8060005260026020526040600020600181555050565b828054828255906000526020600020908101928215610399579160200282015b828111156103985782518260006101000a81548173ffffffffffffffffffffffffffffffffffffffff021916908373ffffffffffffffffffffffffffffffffffffffff16021790555091602001919060010190610340565b5b5090506103a691906103aa565b5090565b5b808211156103c35760008160009055506001016103ab565b5090565b60006103da6103d584610593565b61056e565b905080838252602082019050828560208602820111156103f957600080fd5b60005b85811015610429578161040f8882610433565b8452602084019350602083019250506001810190506103fc565b5050509392505050565b600081359050610442816106f0565b92915050565b600082601f83011261045957600080fd5b81356104698482602086016103c7565b91505092915050565b60008135905061048181610707565b92915050565b60006020828403121561049957600080fd5b60006104a784828501610433565b91505092915050565b6000602082840312156104c257600080fd5b600082013567ffffffffffffffff8111156104dc57600080fd5b6104e884828501610448565b91505092915050565b60006020828403121561050357600080fd5b600061051184828501610472565b91505092915050565b610523816105bf565b82525050565b610532816105d1565b82525050565b600060208201905061054d600083018461051a565b92915050565b60006020820190506105686000830184610529565b92915050565b6000610578610589565b90506105848282610607565b919050565b6000604051905090565b600067ffffffffffffffff8211156105ae576105ad6106b0565b5b602082029050602081019050919050565b60006105ca826105dd565b9050919050565b60008115159050919050565b600073ffffffffffffffffffffffffffffffffffffffff82169050919050565b6000819050919050565b610610826106df565b810181811067ffffffffffffffff8211171561062f5761062e6106b0565b5b80604052505050565b6000610643826105fd565b91507fffffffffffffffffffffffffffffffffffffffffffffffffffffffffffffffff82141561067657610675610681565b5b600182019050919050565b7f4e487b7100000000000000000000000000000000000000000000000000000000600052601160045260246000fd5b7f4e487b7100000000000000000000000000000000000000000000000000000000600052604160045260246000fd5b6000601f19601f8301169050919050565b6106f9816105bf565b811461070457600080fd5b50565b610710816105fd565b811461071b57600080fd5b5056fea264697066735822122039be11afa88482bf620ee36f90c0ce03508ed3ea7d28f7e9d12bfab50cc60bc664736f6c63430008040033",
  "linkReferences": {},
  "deployedLinkReferences": {}
}