{
  "_format": "hh-sol-artifact-1",
  "contractName": "BallotExtended",
  "sourceName": "contracts/BallotExtended.sol",
  "abi": [
    {
      "inputs": [
        {
          "internalType": "bytes32[]",
          "name": "proposalNames",
          "type": "bytes32[]"
        }
      ],
      "stateMutability": "nonpayable",
      "type": "constructor"
    },
    {
      "inputs": [],
      "name": "chairperson",
      "outputs": [
        {
          "internalType": "address",
          "name": "",
          "type": "address"
        }
      ],
      "stateMutability": "view",
      "type": "function"
    },
    {
      "inputs": [
        {
          "internalType": "address",
          "name": "to",
          "type": "address"
        }
      ],
      "name": "delegate",
      "outputs": [],
      "stateMutability": "nonpayable",
      "type": "function"
    },
    {
      "inputs": [
        {
          "internalType": "address",
          "name": "voter",
          "type": "address"
        }
      ],
      "name": "giveRightToVote",
      "outputs": [],
      "stateMutability": "nonpayable",
      "type": "function"
    },
    {
      "inputs": [
        {
          "internalType": "uint256",
          "name": "",
          "type": "uint256"
        }
      ],
      "name": "proposals",
      "outputs": [
        {
          "internalType": "bytes32",
          "name": "name",
          "type": "bytes32"
        },
        {
          "internalType": "uint256",
          "name": "voteCount",
          "type": "uint256"
        }
      ],
      "stateMutability": "view",
      "type": "function"
    },
    {
      "inputs": [
        {
          "internalType": "bytes32",
          "name": "root",
          "type": "bytes32"
        }
      ],
      "name": "setVerifiedHashRoot",
      "outputs": [],
      "stateMutability": "nonpayable",
      "type": "function"
    },
    {
      "inputs": [],
      "name": "verifiedHashRoot",
      "outputs": [
        {
          "internalType": "bytes32",
          "name": "",
          "type": "bytes32"
        }
      ],
      "stateMutability": "view",
      "type": "function"
    },
    {
      "inputs": [
        {
          "internalType": "uint256",
          "name": "proposal",
          "type": "uint256"
        },
        {
          "internalType": "bytes32[]",
          "name": "proof",
          "type": "bytes32[]"
        }
      ],
      "name": "vote",
      "outputs": [],
      "stateMutability": "nonpayable",
      "type": "function"
    },
    {
      "inputs": [
        {
          "internalType": "address",
          "name": "",
          "type": "address"
        }
      ],
      "name": "voters",
      "outputs": [
        {
          "internalType": "uint256",
          "name": "weight",
          "type": "uint256"
        },
        {
          "internalType": "bool",
          "name": "voted",
          "type": "bool"
        },
        {
          "internalType": "address",
          "name": "delegate",
          "type": "address"
        },
        {
          "internalType": "uint256",
          "name": "vote",
          "type": "uint256"
        }
      ],
      "stateMutability": "view",
      "type": "function"
    },
    {
      "inputs": [],
      "name": "winnerName",
      "outputs": [
        {
          "internalType": "bytes32",
          "name": "winnerName_",
          "type": "bytes32"
        }
      ],
      "stateMutability": "view",
      "type": "function"
    },
    {
      "inputs": [],
      "name": "winningProposal",
      "outputs": [
        {
          "internalType": "uint256",
          "name": "winningProposal_",
          "type": "uint256"
        }
      ],
      "stateMutability": "view",
      "type": "function"
    }
  ],
  "bytecode": "0x60806040523480156200001157600080fd5b5060405162001a5e38038062001a5e83398181016040528101906200003791906200025b565b336000806101000a81548173ffffffffffffffffffffffffffffffffffffffff021916908373ffffffffffffffffffffffffffffffffffffffff16021790555060018060008060009054906101000a900473ffffffffffffffffffffffffffffffffffffffff1673ffffffffffffffffffffffffffffffffffffffff1673ffffffffffffffffffffffffffffffffffffffff1681526020019081526020016000206000018190555060005b81518110156200019a576002604051806040016040528084848151811062000133577f4e487b7100000000000000000000000000000000000000000000000000000000600052603260045260246000fd5b6020026020010151815260200160008152509080600181540180825580915050600190039060005260206000209060020201600090919091909150600082015181600001556020820151816001015550508080620001919062000342565b915050620000e2565b505062000419565b6000620001b9620001b384620002c9565b620002a0565b90508083825260208201905082856020860282011115620001d957600080fd5b60005b858110156200020d5781620001f2888262000244565b845260208401935060208301925050600181019050620001dc565b5050509392505050565b600082601f8301126200022957600080fd5b81516200023b848260208601620001a2565b91505092915050565b6000815190506200025581620003ff565b92915050565b6000602082840312156200026e57600080fd5b600082015167ffffffffffffffff8111156200028957600080fd5b620002978482850162000217565b91505092915050565b6000620002ac620002bf565b9050620002ba82826200030c565b919050565b6000604051905090565b600067ffffffffffffffff821115620002e757620002e6620003bf565b5b602082029050602081019050919050565b6000819050919050565b6000819050919050565b6200031782620003ee565b810181811067ffffffffffffffff82111715620003395762000338620003bf565b5b80604052505050565b60006200034f8262000302565b91507fffffffffffffffffffffffffffffffffffffffffffffffffffffffffffffffff82141562000385576200038462000390565b5b600182019050919050565b7f4e487b7100000000000000000000000000000000000000000000000000000000600052601160045260246000fd5b7f4e487b7100000000000000000000000000000000000000000000000000000000600052604160045260246000fd5b6000601f19601f8301169050919050565b6200040a81620002f8565b81146200041657600080fd5b50565b61163580620004296000396000f3fe608060405234801561001057600080fd5b506004361061009e5760003560e01c8063609ff1bd11610066578063609ff1bd146101485780639e7b8d6114610166578063a3ec138d14610182578063e2ba53f0146101b5578063fd27419b146101d35761009e565b8063013cf08b146100a35780632a64b4a8146100d45780632e4176cf146100f2578063439e3a87146101105780635c19a95c1461012c575b600080fd5b6100bd60048036038101906100b89190610e40565b6101ef565b6040516100cb929190611079565b60405180910390f35b6100dc610223565b6040516100e9919061105e565b60405180910390f35b6100fa610229565b6040516101079190611043565b60405180910390f35b61012a60048036038101906101259190610e17565b61024d565b005b61014660048036038101906101419190610dee565b6102e5565b005b6101506106a7565b60405161015d91906111a2565b60405180910390f35b610180600480360381019061017b9190610dee565b61077b565b005b61019c60048036038101906101979190610dee565b610932565b6040516101ac94939291906111bd565b60405180910390f35b6101bd61098f565b6040516101ca919061105e565b60405180910390f35b6101ed60048036038101906101e89190610e69565b6109e9565b005b600281815481106101ff57600080fd5b90600052602060002090600202016000915090508060000154908060010154905082565b60035481565b60008054906101000a900473ffffffffffffffffffffffffffffffffffffffff1681565b60008054906101000a900473ffffffffffffffffffffffffffffffffffffffff1673ffffffffffffffffffffffffffffffffffffffff163373ffffffffffffffffffffffffffffffffffffffff16146102db576040517f08c379a00000000000000000000000000000000000000000000000000000000081526004016102d290611142565b60405180910390fd5b8060038190555050565b6000600160003373ffffffffffffffffffffffffffffffffffffffff1673ffffffffffffffffffffffffffffffffffffffff16815260200190815260200160002090508060010160009054906101000a900460ff161561037a576040517f08c379a0000000000000000000000000000000000000000000000000000000008152600401610371906110e2565b60405180910390fd5b3373ffffffffffffffffffffffffffffffffffffffff168273ffffffffffffffffffffffffffffffffffffffff1614156103e9576040517f08c379a00000000000000000000000000000000000000000000000000000000081526004016103e090611182565b60405180910390fd5b5b600073ffffffffffffffffffffffffffffffffffffffff16600160008473ffffffffffffffffffffffffffffffffffffffff1673ffffffffffffffffffffffffffffffffffffffff16815260200190815260200160002060010160019054906101000a900473ffffffffffffffffffffffffffffffffffffffff1673ffffffffffffffffffffffffffffffffffffffff161461055957600160008373ffffffffffffffffffffffffffffffffffffffff1673ffffffffffffffffffffffffffffffffffffffff16815260200190815260200160002060010160019054906101000a900473ffffffffffffffffffffffffffffffffffffffff1691503373ffffffffffffffffffffffffffffffffffffffff168273ffffffffffffffffffffffffffffffffffffffff161415610554576040517f08c379a000000000000000000000000000000000000000000000000000000000815260040161054b90611122565b60405180910390fd5b6103ea565b60018160010160006101000a81548160ff021916908315150217905550818160010160016101000a81548173ffffffffffffffffffffffffffffffffffffffff021916908373ffffffffffffffffffffffffffffffffffffffff1602179055506000600160008473ffffffffffffffffffffffffffffffffffffffff1673ffffffffffffffffffffffffffffffffffffffff16815260200190815260200160002090508060010160009054906101000a900460ff16156106825781600001546002826002015481548110610656577f4e487b7100000000000000000000000000000000000000000000000000000000600052603260045260246000fd5b906000526020600020906002020160010160008282546106769190611264565b925050819055506106a2565b816000015481600001600082825461069a9190611264565b925050819055505b505050565b6000806000905060005b6002805490508110156107765781600282815481106106f9577f4e487b7100000000000000000000000000000000000000000000000000000000600052603260045260246000fd5b9060005260206000209060020201600101541115610763576002818154811061074b577f4e487b7100000000000000000000000000000000000000000000000000000000600052603260045260246000fd5b90600052602060002090600202016001015491508092505b808061076e9061133d565b9150506106b1565b505090565b60008054906101000a900473ffffffffffffffffffffffffffffffffffffffff1673ffffffffffffffffffffffffffffffffffffffff163373ffffffffffffffffffffffffffffffffffffffff1614610809576040517f08c379a000000000000000000000000000000000000000000000000000000000815260040161080090611102565b60405180910390fd5b600160008273ffffffffffffffffffffffffffffffffffffffff1673ffffffffffffffffffffffffffffffffffffffff16815260200190815260200160002060010160009054906101000a900460ff1615610899576040517f08c379a000000000000000000000000000000000000000000000000000000000815260040161089090611162565b60405180910390fd5b6000600160008373ffffffffffffffffffffffffffffffffffffffff1673ffffffffffffffffffffffffffffffffffffffff16815260200190815260200160002060000154146108e857600080fd5b60018060008373ffffffffffffffffffffffffffffffffffffffff1673ffffffffffffffffffffffffffffffffffffffff1681526020019081526020016000206000018190555050565b60016020528060005260406000206000915090508060000154908060010160009054906101000a900460ff16908060010160019054906101000a900473ffffffffffffffffffffffffffffffffffffffff16908060020154905084565b6000600261099b6106a7565b815481106109d2577f4e487b7100000000000000000000000000000000000000000000000000000000600052603260045260246000fd5b906000526020600020906002020160000154905090565b6000600160003373ffffffffffffffffffffffffffffffffffffffff1673ffffffffffffffffffffffffffffffffffffffff16815260200190815260200160002090508060010160009054906101000a900460ff1615610a7e576040517f08c379a0000000000000000000000000000000000000000000000000000000008152600401610a75906110c2565b60405180910390fd5b60008251118015610a955750610a943383610c13565b5b8015610aed575060008054906101000a900473ffffffffffffffffffffffffffffffffffffffff1673ffffffffffffffffffffffffffffffffffffffff163373ffffffffffffffffffffffffffffffffffffffff1614155b15610b3a5760018060003373ffffffffffffffffffffffffffffffffffffffff1673ffffffffffffffffffffffffffffffffffffffff168152602001908152602001600020600001819055505b600081600001541415610b82576040517f08c379a0000000000000000000000000000000000000000000000000000000008152600401610b79906110a2565b60405180910390fd5b60018160010160006101000a81548160ff021916908315150217905550828160020181905550806000015460028481548110610be7577f4e487b7100000000000000000000000000000000000000000000000000000000600052603260045260246000fd5b90600052602060002090600202016001016000828254610c079190611264565b92505081905550505050565b6000610c488260035485604051602001610c2d9190611028565b60405160208183030381529060405280519060200120610c50565b905092915050565b600082610c5d8584610c67565b1490509392505050565b60008082905060005b8451811015610cf7576000858281518110610cb4577f4e487b7100000000000000000000000000000000000000000000000000000000600052603260045260246000fd5b60200260200101519050808311610cd657610ccf8382610d02565b9250610ce3565b610ce08184610d02565b92505b508080610cef9061133d565b915050610c70565b508091505092915050565b600082600052816020526040600020905092915050565b6000610d2c610d2784611227565b611202565b90508083825260208201905082856020860282011115610d4b57600080fd5b60005b85811015610d7b5781610d618882610dc4565b845260208401935060208301925050600181019050610d4e565b5050509392505050565b600081359050610d94816115ba565b92915050565b600082601f830112610dab57600080fd5b8135610dbb848260208601610d19565b91505092915050565b600081359050610dd3816115d1565b92915050565b600081359050610de8816115e8565b92915050565b600060208284031215610e0057600080fd5b6000610e0e84828501610d85565b91505092915050565b600060208284031215610e2957600080fd5b6000610e3784828501610dc4565b91505092915050565b600060208284031215610e5257600080fd5b6000610e6084828501610dd9565b91505092915050565b60008060408385031215610e7c57600080fd5b6000610e8a85828601610dd9565b925050602083013567ffffffffffffffff811115610ea757600080fd5b610eb385828601610d9a565b9150509250929050565b610ec6816112ba565b82525050565b610edd610ed8826112ba565b611386565b82525050565b610eec816112cc565b82525050565b610efb816112d8565b82525050565b6000610f0e601483611253565b9150610f1982611426565b602082019050919050565b6000610f31600e83611253565b9150610f3c8261144f565b602082019050919050565b6000610f54601283611253565b9150610f5f82611478565b602082019050919050565b6000610f77602883611253565b9150610f82826114a1565b604082019050919050565b6000610f9a601983611253565b9150610fa5826114f0565b602082019050919050565b6000610fbd602283611253565b9150610fc882611519565b604082019050919050565b6000610fe0601883611253565b9150610feb82611568565b602082019050919050565b6000611003601e83611253565b915061100e82611591565b602082019050919050565b61102281611302565b82525050565b60006110348284610ecc565b60148201915081905092915050565b60006020820190506110586000830184610ebd565b92915050565b60006020820190506110736000830184610ef2565b92915050565b600060408201905061108e6000830185610ef2565b61109b6020830184611019565b9392505050565b600060208201905081810360008301526110bb81610f01565b9050919050565b600060208201905081810360008301526110db81610f24565b9050919050565b600060208201905081810360008301526110fb81610f47565b9050919050565b6000602082019050818103600083015261111b81610f6a565b9050919050565b6000602082019050818103600083015261113b81610f8d565b9050919050565b6000602082019050818103600083015261115b81610fb0565b9050919050565b6000602082019050818103600083015261117b81610fd3565b9050919050565b6000602082019050818103600083015261119b81610ff6565b9050919050565b60006020820190506111b76000830184611019565b92915050565b60006080820190506111d26000830187611019565b6111df6020830186610ee3565b6111ec6040830185610ebd565b6111f96060830184611019565b95945050505050565b600061120c61121d565b9050611218828261130c565b919050565b6000604051905090565b600067ffffffffffffffff821115611242576112416113d9565b5b602082029050602081019050919050565b600082825260208201905092915050565b600061126f82611302565b915061127a83611302565b9250827fffffffffffffffffffffffffffffffffffffffffffffffffffffffffffffffff038211156112af576112ae6113aa565b5b828201905092915050565b60006112c5826112e2565b9050919050565b60008115159050919050565b6000819050919050565b600073ffffffffffffffffffffffffffffffffffffffff82169050919050565b6000819050919050565b61131582611408565b810181811067ffffffffffffffff82111715611334576113336113d9565b5b80604052505050565b600061134882611302565b91507fffffffffffffffffffffffffffffffffffffffffffffffffffffffffffffffff82141561137b5761137a6113aa565b5b600182019050919050565b600061139182611398565b9050919050565b60006113a382611419565b9050919050565b7f4e487b7100000000000000000000000000000000000000000000000000000000600052601160045260246000fd5b7f4e487b7100000000000000000000000000000000000000000000000000000000600052604160045260246000fd5b6000601f19601f8301169050919050565b60008160601b9050919050565b7f486173206e6f20726967687420746f20766f7465000000000000000000000000600082015250565b7f416c726561647920766f7465642e000000000000000000000000000000000000600082015250565b7f596f7520616c726561647920766f7465642e0000000000000000000000000000600082015250565b7f4f6e6c79206368616972706572736f6e2063616e20676976652072696768742060008201527f746f20766f74652e000000000000000000000000000000000000000000000000602082015250565b7f466f756e64206c6f6f7020696e2064656c65676174696f6e2e00000000000000600082015250565b7f4f6e6c79206368616972706572736f6e2063616e20626174636820617070726f60008201527f7665000000000000000000000000000000000000000000000000000000000000602082015250565b7f54686520766f74657220616c726561647920766f7465642e0000000000000000600082015250565b7f53656c662d64656c65676174696f6e20697320646973616c6c6f7765642e0000600082015250565b6115c3816112ba565b81146115ce57600080fd5b50565b6115da816112d8565b81146115e557600080fd5b50565b6115f181611302565b81146115fc57600080fd5b5056fea2646970667358221220da538be9ddb06becb55d3aa7d6f9c29764b772e31b85ff3313f098612f44aab464736f6c63430008040033",
  "linkReferences": {},
  "deployedLinkReferences": {}
}